{
  "_format": "hh-sol-artifact-1",
  "contractName": "NFT",
  "sourceName": "contracts/NFT.sol",
  "abi": [
    {
      "inputs": [],
      "stateMutability": "nonpayable",
      "type": "constructor"
    },
    {
      "anonymous": false,
      "inputs": [
        {
          "indexed": true,
          "internalType": "address",
          "name": "owner",
          "type": "address"
        },
        {
          "indexed": true,
          "internalType": "address",
          "name": "approved",
          "type": "address"
        },
        {
          "indexed": true,
          "internalType": "uint256",
          "name": "tokenId",
          "type": "uint256"
        }
      ],
      "name": "Approval",
      "type": "event"
    },
    {
      "anonymous": false,
      "inputs": [
        {
          "indexed": true,
          "internalType": "address",
          "name": "owner",
          "type": "address"
        },
        {
          "indexed": true,
          "internalType": "address",
          "name": "operator",
          "type": "address"
        },
        {
          "indexed": false,
          "internalType": "bool",
          "name": "approved",
          "type": "bool"
        }
      ],
      "name": "ApprovalForAll",
      "type": "event"
    },
    {
      "anonymous": false,
      "inputs": [
        {
          "indexed": true,
          "internalType": "address",
          "name": "previousOwner",
          "type": "address"
        },
        {
          "indexed": true,
          "internalType": "address",
          "name": "newOwner",
          "type": "address"
        }
      ],
      "name": "OwnershipTransferred",
      "type": "event"
    },
    {
      "anonymous": false,
      "inputs": [
        {
          "indexed": true,
          "internalType": "address",
          "name": "from",
          "type": "address"
        },
        {
          "indexed": true,
          "internalType": "address",
          "name": "to",
          "type": "address"
        },
        {
          "indexed": true,
          "internalType": "uint256",
          "name": "tokenId",
          "type": "uint256"
        }
      ],
      "name": "Transfer",
      "type": "event"
    },
    {
      "inputs": [],
      "name": "MINT_PRICE",
      "outputs": [
        {
          "internalType": "uint256",
          "name": "",
          "type": "uint256"
        }
      ],
      "stateMutability": "view",
      "type": "function"
    },
    {
      "inputs": [],
      "name": "TOTAL_SUPPLY",
      "outputs": [
        {
          "internalType": "uint256",
          "name": "",
          "type": "uint256"
        }
      ],
      "stateMutability": "view",
      "type": "function"
    },
    {
      "inputs": [
        {
          "internalType": "address",
          "name": "to",
          "type": "address"
        },
        {
          "internalType": "uint256",
          "name": "tokenId",
          "type": "uint256"
        }
      ],
      "name": "approve",
      "outputs": [],
      "stateMutability": "nonpayable",
      "type": "function"
    },
    {
      "inputs": [
        {
          "internalType": "address",
          "name": "owner",
          "type": "address"
        }
      ],
      "name": "balanceOf",
      "outputs": [
        {
          "internalType": "uint256",
          "name": "",
          "type": "uint256"
        }
      ],
      "stateMutability": "view",
      "type": "function"
    },
    {
      "inputs": [],
      "name": "baseTokenURI",
      "outputs": [
        {
          "internalType": "string",
          "name": "",
          "type": "string"
        }
      ],
      "stateMutability": "view",
      "type": "function"
    },
    {
      "inputs": [
        {
          "internalType": "uint256",
          "name": "tokenId",
          "type": "uint256"
        }
      ],
      "name": "getApproved",
      "outputs": [
        {
          "internalType": "address",
          "name": "",
          "type": "address"
        }
      ],
      "stateMutability": "view",
      "type": "function"
    },
    {
      "inputs": [
        {
          "internalType": "address",
          "name": "owner",
          "type": "address"
        },
        {
          "internalType": "address",
          "name": "operator",
          "type": "address"
        }
      ],
      "name": "isApprovedForAll",
      "outputs": [
        {
          "internalType": "bool",
          "name": "",
          "type": "bool"
        }
      ],
      "stateMutability": "view",
      "type": "function"
    },
    {
      "inputs": [
        {
          "internalType": "address",
          "name": "recipient",
          "type": "address"
        }
      ],
      "name": "mintTo",
      "outputs": [
        {
          "internalType": "uint256",
          "name": "",
          "type": "uint256"
        }
      ],
      "stateMutability": "payable",
      "type": "function"
    },
    {
      "inputs": [],
      "name": "name",
      "outputs": [
        {
          "internalType": "string",
          "name": "",
          "type": "string"
        }
      ],
      "stateMutability": "view",
      "type": "function"
    },
    {
      "inputs": [],
      "name": "owner",
      "outputs": [
        {
          "internalType": "address",
          "name": "",
          "type": "address"
        }
      ],
      "stateMutability": "view",
      "type": "function"
    },
    {
      "inputs": [
        {
          "internalType": "uint256",
          "name": "tokenId",
          "type": "uint256"
        }
      ],
      "name": "ownerOf",
      "outputs": [
        {
          "internalType": "address",
          "name": "",
          "type": "address"
        }
      ],
      "stateMutability": "view",
      "type": "function"
    },
    {
      "inputs": [
        {
          "internalType": "address",
          "name": "dest",
          "type": "address"
        }
      ],
      "name": "payments",
      "outputs": [
        {
          "internalType": "uint256",
          "name": "",
          "type": "uint256"
        }
      ],
      "stateMutability": "view",
      "type": "function"
    },
    {
      "inputs": [],
      "name": "renounceOwnership",
      "outputs": [],
      "stateMutability": "nonpayable",
      "type": "function"
    },
    {
      "inputs": [
        {
          "internalType": "address",
          "name": "from",
          "type": "address"
        },
        {
          "internalType": "address",
          "name": "to",
          "type": "address"
        },
        {
          "internalType": "uint256",
          "name": "tokenId",
          "type": "uint256"
        }
      ],
      "name": "safeTransferFrom",
      "outputs": [],
      "stateMutability": "nonpayable",
      "type": "function"
    },
    {
      "inputs": [
        {
          "internalType": "address",
          "name": "from",
          "type": "address"
        },
        {
          "internalType": "address",
          "name": "to",
          "type": "address"
        },
        {
          "internalType": "uint256",
          "name": "tokenId",
          "type": "uint256"
        },
        {
          "internalType": "bytes",
          "name": "_data",
          "type": "bytes"
        }
      ],
      "name": "safeTransferFrom",
      "outputs": [],
      "stateMutability": "nonpayable",
      "type": "function"
    },
    {
      "inputs": [
        {
          "internalType": "address",
          "name": "operator",
          "type": "address"
        },
        {
          "internalType": "bool",
          "name": "approved",
          "type": "bool"
        }
      ],
      "name": "setApprovalForAll",
      "outputs": [],
      "stateMutability": "nonpayable",
      "type": "function"
    },
    {
      "inputs": [
        {
          "internalType": "string",
          "name": "_baseTokenURI",
          "type": "string"
        }
      ],
      "name": "setBaseTokenURI",
      "outputs": [],
      "stateMutability": "nonpayable",
      "type": "function"
    },
    {
      "inputs": [
        {
          "internalType": "bytes4",
          "name": "interfaceId",
          "type": "bytes4"
        }
      ],
      "name": "supportsInterface",
      "outputs": [
        {
          "internalType": "bool",
          "name": "",
          "type": "bool"
        }
      ],
      "stateMutability": "view",
      "type": "function"
    },
    {
      "inputs": [],
      "name": "symbol",
      "outputs": [
        {
          "internalType": "string",
          "name": "",
          "type": "string"
        }
      ],
      "stateMutability": "view",
      "type": "function"
    },
    {
      "inputs": [
        {
          "internalType": "uint256",
          "name": "tokenId",
          "type": "uint256"
        }
      ],
      "name": "tokenURI",
      "outputs": [
        {
          "internalType": "string",
          "name": "",
          "type": "string"
        }
      ],
      "stateMutability": "view",
      "type": "function"
    },
    {
      "inputs": [
        {
          "internalType": "address",
          "name": "from",
          "type": "address"
        },
        {
          "internalType": "address",
          "name": "to",
          "type": "address"
        },
        {
          "internalType": "uint256",
          "name": "tokenId",
          "type": "uint256"
        }
      ],
      "name": "transferFrom",
      "outputs": [],
      "stateMutability": "nonpayable",
      "type": "function"
    },
    {
      "inputs": [
        {
          "internalType": "address",
          "name": "newOwner",
          "type": "address"
        }
      ],
      "name": "transferOwnership",
      "outputs": [],
      "stateMutability": "nonpayable",
      "type": "function"
    },
    {
      "inputs": [
        {
          "internalType": "address payable",
          "name": "payee",
          "type": "address"
        }
      ],
      "name": "withdrawPayments",
      "outputs": [],
      "stateMutability": "nonpayable",
      "type": "function"
    }
  ],
  "bytecode": "0x60a06040523480156200001157600080fd5b506040518060400160405280600b81526020017f4e46545475746f7269616c0000000000000000000000000000000000000000008152506040518060400160405280600381526020017f4e4654000000000000000000000000000000000000000000000000000000000081525081600090805190602001906200009692919062000230565b508060019080519060200190620000af92919062000230565b505050604051620000c090620002c1565b604051809103906000f080158015620000dd573d6000803e3d6000fd5b5073ffffffffffffffffffffffffffffffffffffffff1660808173ffffffffffffffffffffffffffffffffffffffff1660601b8152505062000134620001286200016260201b60201c565b6200016a60201b60201c565b60405180602001604052806000815250600890805190602001906200015b92919062000230565b5062000353565b600033905090565b6000600660009054906101000a900473ffffffffffffffffffffffffffffffffffffffff16905081600660006101000a81548173ffffffffffffffffffffffffffffffffffffffff021916908373ffffffffffffffffffffffffffffffffffffffff1602179055508173ffffffffffffffffffffffffffffffffffffffff168173ffffffffffffffffffffffffffffffffffffffff167f8be0079c531659141344cd1fd0a4f28419497f9722a3daafe3b4186f6b6457e060405160405180910390a35050565b8280546200023e90620002ee565b90600052602060002090601f016020900481019282620002625760008555620002ae565b82601f106200027d57805160ff1916838001178555620002ae565b82800160010185558215620002ae579182015b82811115620002ad57825182559160200191906001019062000290565b5b509050620002bd9190620002cf565b5090565b610d09806200384e83390190565b5b80821115620002ea576000816000905550600101620002d0565b5090565b600060028204905060018216806200030757607f821691505b602082108114156200031e576200031d62000324565b5b50919050565b7f4e487b7100000000000000000000000000000000000000000000000000000000600052602260045260246000fd5b60805160601c6134d56200037960003960008181610f6a015261168201526134d56000f3fe6080604052600436106101405760003560e01c8063755edd17116100b6578063c002d23d1161006f578063c002d23d1461044b578063c87b56dd14610476578063d547cfb7146104b3578063e2982c21146104de578063e985e9c51461051b578063f2fde38b1461055857610140565b8063755edd17146103485780638da5cb5b14610378578063902d55a5146103a357806395d89b41146103ce578063a22cb465146103f9578063b88d4fde1461042257610140565b806330176e131161010857806330176e131461023c57806331b3eb941461026557806342842e0e1461028e5780636352211e146102b757806370a08231146102f4578063715018a61461033157610140565b806301ffc9a71461014557806306fdde0314610182578063081812fc146101ad578063095ea7b3146101ea57806323b872dd14610213575b600080fd5b34801561015157600080fd5b5061016c600480360381019061016791906123ed565b610581565b60405161017991906128cd565b60405180910390f35b34801561018e57600080fd5b50610197610663565b6040516101a491906128e8565b60405180910390f35b3480156101b957600080fd5b506101d460048036038101906101cf9190612480565b6106f5565b6040516101e1919061284b565b60405180910390f35b3480156101f657600080fd5b50610211600480360381019061020c91906123b1565b61077a565b005b34801561021f57600080fd5b5061023a600480360381019061023591906122ab565b610892565b005b34801561024857600080fd5b50610263600480360381019061025e919061243f565b6108f2565b005b34801561027157600080fd5b5061028c60048036038101906102879190612246565b610988565b005b34801561029a57600080fd5b506102b560048036038101906102b091906122ab565b610a10565b005b3480156102c357600080fd5b506102de60048036038101906102d99190612480565b610a30565b6040516102eb919061284b565b60405180910390f35b34801561030057600080fd5b5061031b6004803603810190610316919061221d565b610ae2565b6040516103289190612b4a565b60405180910390f35b34801561033d57600080fd5b50610346610b9a565b005b610362600480360381019061035d919061221d565b610c22565b60405161036f9190612b4a565b60405180910390f35b34801561038457600080fd5b5061038d610ceb565b60405161039a919061284b565b60405180910390f35b3480156103af57600080fd5b506103b8610d15565b6040516103c59190612b4a565b60405180910390f35b3480156103da57600080fd5b506103e3610d1b565b6040516103f091906128e8565b60405180910390f35b34801561040557600080fd5b50610420600480360381019061041b9190612375565b610dad565b005b34801561042e57600080fd5b50610449600480360381019061044491906122fa565b610dc3565b005b34801561045757600080fd5b50610460610e25565b60405161046d9190612b4a565b60405180910390f35b34801561048257600080fd5b5061049d60048036038101906104989190612480565b610e31565b6040516104aa91906128e8565b60405180910390f35b3480156104bf57600080fd5b506104c8610ed8565b6040516104d591906128e8565b60405180910390f35b3480156104ea57600080fd5b506105056004803603810190610500919061221d565b610f66565b6040516105129190612b4a565b60405180910390f35b34801561052757600080fd5b50610542600480360381019061053d919061226f565b611018565b60405161054f91906128cd565b60405180910390f35b34801561056457600080fd5b5061057f600480360381019061057a919061221d565b6110ac565b005b60007f80ac58cd000000000000000000000000000000000000000000000000000000007bffffffffffffffffffffffffffffffffffffffffffffffffffffffff1916827bffffffffffffffffffffffffffffffffffffffffffffffffffffffff1916148061064c57507f5b5e139f000000000000000000000000000000000000000000000000000000007bffffffffffffffffffffffffffffffffffffffffffffffffffffffff1916827bffffffffffffffffffffffffffffffffffffffffffffffffffffffff1916145b8061065c575061065b826111a4565b5b9050919050565b60606000805461067290612db2565b80601f016020809104026020016040519081016040528092919081815260200182805461069e90612db2565b80156106eb5780601f106106c0576101008083540402835291602001916106eb565b820191906000526020600020905b8154815290600101906020018083116106ce57829003601f168201915b5050505050905090565b60006107008261120e565b61073f576040517f08c379a000000000000000000000000000000000000000000000000000000000815260040161073690612a8a565b60405180910390fd5b6004600083815260200190815260200160002060009054906101000a900473ffffffffffffffffffffffffffffffffffffffff169050919050565b600061078582610a30565b90508073ffffffffffffffffffffffffffffffffffffffff168373ffffffffffffffffffffffffffffffffffffffff1614156107f6576040517f08c379a00000000000000000000000000000000000000000000000000000000081526004016107ed90612aea565b60405180910390fd5b8073ffffffffffffffffffffffffffffffffffffffff1661081561127a565b73ffffffffffffffffffffffffffffffffffffffff16148061084457506108438161083e61127a565b611018565b5b610883576040517f08c379a000000000000000000000000000000000000000000000000000000000815260040161087a90612a0a565b60405180910390fd5b61088d8383611282565b505050565b6108a361089d61127a565b8261133b565b6108e2576040517f08c379a00000000000000000000000000000000000000000000000000000000081526004016108d990612b0a565b60405180910390fd5b6108ed838383611419565b505050565b6108fa61127a565b73ffffffffffffffffffffffffffffffffffffffff16610918610ceb565b73ffffffffffffffffffffffffffffffffffffffff161461096e576040517f08c379a000000000000000000000000000000000000000000000000000000000815260040161096590612aaa565b60405180910390fd5b8060089080519060200190610984929190612017565b5050565b61099061127a565b73ffffffffffffffffffffffffffffffffffffffff166109ae610ceb565b73ffffffffffffffffffffffffffffffffffffffff1614610a04576040517f08c379a00000000000000000000000000000000000000000000000000000000081526004016109fb90612aaa565b60405180910390fd5b610a0d81611680565b50565b610a2b83838360405180602001604052806000815250610dc3565b505050565b6000806002600084815260200190815260200160002060009054906101000a900473ffffffffffffffffffffffffffffffffffffffff169050600073ffffffffffffffffffffffffffffffffffffffff168173ffffffffffffffffffffffffffffffffffffffff161415610ad9576040517f08c379a0000000000000000000000000000000000000000000000000000000008152600401610ad090612a4a565b60405180910390fd5b80915050919050565b60008073ffffffffffffffffffffffffffffffffffffffff168273ffffffffffffffffffffffffffffffffffffffff161415610b53576040517f08c379a0000000000000000000000000000000000000000000000000000000008152600401610b4a90612a2a565b60405180910390fd5b600360008373ffffffffffffffffffffffffffffffffffffffff1673ffffffffffffffffffffffffffffffffffffffff168152602001908152602001600020549050919050565b610ba261127a565b73ffffffffffffffffffffffffffffffffffffffff16610bc0610ceb565b73ffffffffffffffffffffffffffffffffffffffff1614610c16576040517f08c379a0000000000000000000000000000000000000000000000000000000008152600401610c0d90612aaa565b60405180910390fd5b610c20600061170e565b565b600080610c2f60076117d4565b90506127108110610c75576040517f08c379a0000000000000000000000000000000000000000000000000000000008152600401610c6c90612b2a565b60405180910390fd5b67011c37937e0800003414610cbf576040517f08c379a0000000000000000000000000000000000000000000000000000000008152600401610cb6906129ca565b60405180910390fd5b610cc960076117e2565b6000610cd560076117d4565b9050610ce184826117f8565b8092505050919050565b6000600660009054906101000a900473ffffffffffffffffffffffffffffffffffffffff16905090565b61271081565b606060018054610d2a90612db2565b80601f0160208091040260200160405190810160405280929190818152602001828054610d5690612db2565b8015610da35780601f10610d7857610100808354040283529160200191610da3565b820191906000526020600020905b815481529060010190602001808311610d8657829003601f168201915b5050505050905090565b610dbf610db861127a565b8383611816565b5050565b610dd4610dce61127a565b8361133b565b610e13576040517f08c379a0000000000000000000000000000000000000000000000000000000008152600401610e0a90612b0a565b60405180910390fd5b610e1f84848484611983565b50505050565b67011c37937e08000081565b6060610e3c8261120e565b610e7b576040517f08c379a0000000000000000000000000000000000000000000000000000000008152600401610e7290612aca565b60405180910390fd5b6000610e856119df565b90506000815111610ea55760405180602001604052806000815250610ed0565b80610eaf84611a71565b604051602001610ec0929190612827565b6040516020818303038152906040525b915050919050565b60088054610ee590612db2565b80601f0160208091040260200160405190810160405280929190818152602001828054610f1190612db2565b8015610f5e5780601f10610f3357610100808354040283529160200191610f5e565b820191906000526020600020905b815481529060010190602001808311610f4157829003601f168201915b505050505081565b60007f000000000000000000000000000000000000000000000000000000000000000073ffffffffffffffffffffffffffffffffffffffff1663e3a9db1a836040518263ffffffff1660e01b8152600401610fc1919061284b565b60206040518083038186803b158015610fd957600080fd5b505afa158015610fed573d6000803e3d6000fd5b505050506040513d601f19601f8201168201806040525081019061101191906124a9565b9050919050565b6000600560008473ffffffffffffffffffffffffffffffffffffffff1673ffffffffffffffffffffffffffffffffffffffff16815260200190815260200160002060008373ffffffffffffffffffffffffffffffffffffffff1673ffffffffffffffffffffffffffffffffffffffff16815260200190815260200160002060009054906101000a900460ff16905092915050565b6110b461127a565b73ffffffffffffffffffffffffffffffffffffffff166110d2610ceb565b73ffffffffffffffffffffffffffffffffffffffff1614611128576040517f08c379a000000000000000000000000000000000000000000000000000000000815260040161111f90612aaa565b60405180910390fd5b600073ffffffffffffffffffffffffffffffffffffffff168173ffffffffffffffffffffffffffffffffffffffff161415611198576040517f08c379a000000000000000000000000000000000000000000000000000000000815260040161118f9061292a565b60405180910390fd5b6111a18161170e565b50565b60007f01ffc9a7000000000000000000000000000000000000000000000000000000007bffffffffffffffffffffffffffffffffffffffffffffffffffffffff1916827bffffffffffffffffffffffffffffffffffffffffffffffffffffffff1916149050919050565b60008073ffffffffffffffffffffffffffffffffffffffff166002600084815260200190815260200160002060009054906101000a900473ffffffffffffffffffffffffffffffffffffffff1673ffffffffffffffffffffffffffffffffffffffff1614159050919050565b600033905090565b816004600083815260200190815260200160002060006101000a81548173ffffffffffffffffffffffffffffffffffffffff021916908373ffffffffffffffffffffffffffffffffffffffff160217905550808273ffffffffffffffffffffffffffffffffffffffff166112f583610a30565b73ffffffffffffffffffffffffffffffffffffffff167f8c5be1e5ebec7d5bd14f71427d1e84f3dd0314c0f7b2291e5b200ac8c7c3b92560405160405180910390a45050565b60006113468261120e565b611385576040517f08c379a000000000000000000000000000000000000000000000000000000000815260040161137c906129ea565b60405180910390fd5b600061139083610a30565b90508073ffffffffffffffffffffffffffffffffffffffff168473ffffffffffffffffffffffffffffffffffffffff1614806113d257506113d18185611018565b5b8061141057508373ffffffffffffffffffffffffffffffffffffffff166113f8846106f5565b73ffffffffffffffffffffffffffffffffffffffff16145b91505092915050565b8273ffffffffffffffffffffffffffffffffffffffff1661143982610a30565b73ffffffffffffffffffffffffffffffffffffffff161461148f576040517f08c379a00000000000000000000000000000000000000000000000000000000081526004016114869061294a565b60405180910390fd5b600073ffffffffffffffffffffffffffffffffffffffff168273ffffffffffffffffffffffffffffffffffffffff1614156114ff576040517f08c379a00000000000000000000000000000000000000000000000000000000081526004016114f69061298a565b60405180910390fd5b61150a838383611c1e565b611515600082611282565b6001600360008573ffffffffffffffffffffffffffffffffffffffff1673ffffffffffffffffffffffffffffffffffffffff16815260200190815260200160002060008282546115659190612cb6565b925050819055506001600360008473ffffffffffffffffffffffffffffffffffffffff1673ffffffffffffffffffffffffffffffffffffffff16815260200190815260200160002060008282546115bc9190612c2f565b92505081905550816002600083815260200190815260200160002060006101000a81548173ffffffffffffffffffffffffffffffffffffffff021916908373ffffffffffffffffffffffffffffffffffffffff160217905550808273ffffffffffffffffffffffffffffffffffffffff168473ffffffffffffffffffffffffffffffffffffffff167fddf252ad1be2c89b69c2b068fc378daa952ba7f163c4a11628f55a4df523b3ef60405160405180910390a461167b838383611c23565b505050565b7f000000000000000000000000000000000000000000000000000000000000000073ffffffffffffffffffffffffffffffffffffffff166351cff8d9826040518263ffffffff1660e01b81526004016116d99190612866565b600060405180830381600087803b1580156116f357600080fd5b505af1158015611707573d6000803e3d6000fd5b5050505050565b6000600660009054906101000a900473ffffffffffffffffffffffffffffffffffffffff16905081600660006101000a81548173ffffffffffffffffffffffffffffffffffffffff021916908373ffffffffffffffffffffffffffffffffffffffff1602179055508173ffffffffffffffffffffffffffffffffffffffff168173ffffffffffffffffffffffffffffffffffffffff167f8be0079c531659141344cd1fd0a4f28419497f9722a3daafe3b4186f6b6457e060405160405180910390a35050565b600081600001549050919050565b6001816000016000828254019250508190555050565b611812828260405180602001604052806000815250611c28565b5050565b8173ffffffffffffffffffffffffffffffffffffffff168373ffffffffffffffffffffffffffffffffffffffff161415611885576040517f08c379a000000000000000000000000000000000000000000000000000000000815260040161187c906129aa565b60405180910390fd5b80600560008573ffffffffffffffffffffffffffffffffffffffff1673ffffffffffffffffffffffffffffffffffffffff16815260200190815260200160002060008473ffffffffffffffffffffffffffffffffffffffff1673ffffffffffffffffffffffffffffffffffffffff16815260200190815260200160002060006101000a81548160ff0219169083151502179055508173ffffffffffffffffffffffffffffffffffffffff168373ffffffffffffffffffffffffffffffffffffffff167f17307eab39ab6107e8899845ad3d59bd9653f200f220920489ca2b5937696c318360405161197691906128cd565b60405180910390a3505050565b61198e848484611419565b61199a84848484611c83565b6119d9576040517f08c379a00000000000000000000000000000000000000000000000000000000081526004016119d09061290a565b60405180910390fd5b50505050565b6060600880546119ee90612db2565b80601f0160208091040260200160405190810160405280929190818152602001828054611a1a90612db2565b8015611a675780601f10611a3c57610100808354040283529160200191611a67565b820191906000526020600020905b815481529060010190602001808311611a4a57829003601f168201915b5050505050905090565b60606000821415611ab9576040518060400160405280600181526020017f30000000000000000000000000000000000000000000000000000000000000008152509050611c19565b600082905060005b60008214611aeb578080611ad490612e15565b915050600a82611ae49190612c85565b9150611ac1565b60008167ffffffffffffffff811115611b2d577f4e487b7100000000000000000000000000000000000000000000000000000000600052604160045260246000fd5b6040519080825280601f01601f191660200182016040528015611b5f5781602001600182028036833780820191505090505b5090505b60008514611c1257600182611b789190612cb6565b9150600a85611b879190612e5e565b6030611b939190612c2f565b60f81b818381518110611bcf577f4e487b7100000000000000000000000000000000000000000000000000000000600052603260045260246000fd5b60200101907effffffffffffffffffffffffffffffffffffffffffffffffffffffffffffff1916908160001a905350600a85611c0b9190612c85565b9450611b63565b8093505050505b919050565b505050565b505050565b611c328383611e1a565b611c3f6000848484611c83565b611c7e576040517f08c379a0000000000000000000000000000000000000000000000000000000008152600401611c759061290a565b60405180910390fd5b505050565b6000611ca48473ffffffffffffffffffffffffffffffffffffffff16611ff4565b15611e0d578373ffffffffffffffffffffffffffffffffffffffff1663150b7a02611ccd61127a565b8786866040518563ffffffff1660e01b8152600401611cef9493929190612881565b602060405180830381600087803b158015611d0957600080fd5b505af1925050508015611d3a57506040513d601f19601f82011682018060405250810190611d379190612416565b60015b611dbd573d8060008114611d6a576040519150601f19603f3d011682016040523d82523d6000602084013e611d6f565b606091505b50600081511415611db5576040517f08c379a0000000000000000000000000000000000000000000000000000000008152600401611dac9061290a565b60405180910390fd5b805181602001fd5b63150b7a0260e01b7bffffffffffffffffffffffffffffffffffffffffffffffffffffffff1916817bffffffffffffffffffffffffffffffffffffffffffffffffffffffff191614915050611e12565b600190505b949350505050565b600073ffffffffffffffffffffffffffffffffffffffff168273ffffffffffffffffffffffffffffffffffffffff161415611e8a576040517f08c379a0000000000000000000000000000000000000000000000000000000008152600401611e8190612a6a565b60405180910390fd5b611e938161120e565b15611ed3576040517f08c379a0000000000000000000000000000000000000000000000000000000008152600401611eca9061296a565b60405180910390fd5b611edf60008383611c1e565b6001600360008473ffffffffffffffffffffffffffffffffffffffff1673ffffffffffffffffffffffffffffffffffffffff1681526020019081526020016000206000828254611f2f9190612c2f565b92505081905550816002600083815260200190815260200160002060006101000a81548173ffffffffffffffffffffffffffffffffffffffff021916908373ffffffffffffffffffffffffffffffffffffffff160217905550808273ffffffffffffffffffffffffffffffffffffffff16600073ffffffffffffffffffffffffffffffffffffffff167fddf252ad1be2c89b69c2b068fc378daa952ba7f163c4a11628f55a4df523b3ef60405160405180910390a4611ff060008383611c23565b5050565b6000808273ffffffffffffffffffffffffffffffffffffffff163b119050919050565b82805461202390612db2565b90600052602060002090601f016020900481019282612045576000855561208c565b82601f1061205e57805160ff191683800117855561208c565b8280016001018555821561208c579182015b8281111561208b578251825591602001919060010190612070565b5b509050612099919061209d565b5090565b5b808211156120b657600081600090555060010161209e565b5090565b60006120cd6120c884612b8a565b612b65565b9050828152602081018484840111156120e557600080fd5b6120f0848285612d70565b509392505050565b600061210b61210684612bbb565b612b65565b90508281526020810184848401111561212357600080fd5b61212e848285612d70565b509392505050565b6000813590506121458161342c565b92915050565b60008135905061215a81613443565b92915050565b60008135905061216f8161345a565b92915050565b60008135905061218481613471565b92915050565b60008151905061219981613471565b92915050565b600082601f8301126121b057600080fd5b81356121c08482602086016120ba565b91505092915050565b600082601f8301126121da57600080fd5b81356121ea8482602086016120f8565b91505092915050565b60008135905061220281613488565b92915050565b60008151905061221781613488565b92915050565b60006020828403121561222f57600080fd5b600061223d84828501612136565b91505092915050565b60006020828403121561225857600080fd5b60006122668482850161214b565b91505092915050565b6000806040838503121561228257600080fd5b600061229085828601612136565b92505060206122a185828601612136565b9150509250929050565b6000806000606084860312156122c057600080fd5b60006122ce86828701612136565b93505060206122df86828701612136565b92505060406122f0868287016121f3565b9150509250925092565b6000806000806080858703121561231057600080fd5b600061231e87828801612136565b945050602061232f87828801612136565b9350506040612340878288016121f3565b925050606085013567ffffffffffffffff81111561235d57600080fd5b6123698782880161219f565b91505092959194509250565b6000806040838503121561238857600080fd5b600061239685828601612136565b92505060206123a785828601612160565b9150509250929050565b600080604083850312156123c457600080fd5b60006123d285828601612136565b92505060206123e3858286016121f3565b9150509250929050565b6000602082840312156123ff57600080fd5b600061240d84828501612175565b91505092915050565b60006020828403121561242857600080fd5b60006124368482850161218a565b91505092915050565b60006020828403121561245157600080fd5b600082013567ffffffffffffffff81111561246b57600080fd5b612477848285016121c9565b91505092915050565b60006020828403121561249257600080fd5b60006124a0848285016121f3565b91505092915050565b6000602082840312156124bb57600080fd5b60006124c984828501612208565b91505092915050565b6124db81612cfc565b82525050565b6124ea81612cea565b82525050565b6124f981612d0e565b82525050565b600061250a82612bec565b6125148185612c02565b9350612524818560208601612d7f565b61252d81612f4b565b840191505092915050565b600061254382612bf7565b61254d8185612c13565b935061255d818560208601612d7f565b61256681612f4b565b840191505092915050565b600061257c82612bf7565b6125868185612c24565b9350612596818560208601612d7f565b80840191505092915050565b60006125af603283612c13565b91506125ba82612f5c565b604082019050919050565b60006125d2602683612c13565b91506125dd82612fab565b604082019050919050565b60006125f5602583612c13565b915061260082612ffa565b604082019050919050565b6000612618601c83612c13565b915061262382613049565b602082019050919050565b600061263b602483612c13565b915061264682613072565b604082019050919050565b600061265e601983612c13565b9150612669826130c1565b602082019050919050565b6000612681602e83612c13565b915061268c826130ea565b604082019050919050565b60006126a4602c83612c13565b91506126af82613139565b604082019050919050565b60006126c7603883612c13565b91506126d282613188565b604082019050919050565b60006126ea602a83612c13565b91506126f5826131d7565b604082019050919050565b600061270d602983612c13565b915061271882613226565b604082019050919050565b6000612730602083612c13565b915061273b82613275565b602082019050919050565b6000612753602c83612c13565b915061275e8261329e565b604082019050919050565b6000612776602083612c13565b9150612781826132ed565b602082019050919050565b6000612799602f83612c13565b91506127a482613316565b604082019050919050565b60006127bc602183612c13565b91506127c782613365565b604082019050919050565b60006127df603183612c13565b91506127ea826133b4565b604082019050919050565b6000612802601283612c13565b915061280d82613403565b602082019050919050565b61282181612d66565b82525050565b60006128338285612571565b915061283f8284612571565b91508190509392505050565b600060208201905061286060008301846124e1565b92915050565b600060208201905061287b60008301846124d2565b92915050565b600060808201905061289660008301876124e1565b6128a360208301866124e1565b6128b06040830185612818565b81810360608301526128c281846124ff565b905095945050505050565b60006020820190506128e260008301846124f0565b92915050565b600060208201905081810360008301526129028184612538565b905092915050565b60006020820190508181036000830152612923816125a2565b9050919050565b60006020820190508181036000830152612943816125c5565b9050919050565b60006020820190508181036000830152612963816125e8565b9050919050565b600060208201905081810360008301526129838161260b565b9050919050565b600060208201905081810360008301526129a38161262e565b9050919050565b600060208201905081810360008301526129c381612651565b9050919050565b600060208201905081810360008301526129e381612674565b9050919050565b60006020820190508181036000830152612a0381612697565b9050919050565b60006020820190508181036000830152612a23816126ba565b9050919050565b60006020820190508181036000830152612a43816126dd565b9050919050565b60006020820190508181036000830152612a6381612700565b9050919050565b60006020820190508181036000830152612a8381612723565b9050919050565b60006020820190508181036000830152612aa381612746565b9050919050565b60006020820190508181036000830152612ac381612769565b9050919050565b60006020820190508181036000830152612ae38161278c565b9050919050565b60006020820190508181036000830152612b03816127af565b9050919050565b60006020820190508181036000830152612b23816127d2565b9050919050565b60006020820190508181036000830152612b43816127f5565b9050919050565b6000602082019050612b5f6000830184612818565b92915050565b6000612b6f612b80565b9050612b7b8282612de4565b919050565b6000604051905090565b600067ffffffffffffffff821115612ba557612ba4612f1c565b5b612bae82612f4b565b9050602081019050919050565b600067ffffffffffffffff821115612bd657612bd5612f1c565b5b612bdf82612f4b565b9050602081019050919050565b600081519050919050565b600081519050919050565b600082825260208201905092915050565b600082825260208201905092915050565b600081905092915050565b6000612c3a82612d66565b9150612c4583612d66565b9250827fffffffffffffffffffffffffffffffffffffffffffffffffffffffffffffffff03821115612c7a57612c79612e8f565b5b828201905092915050565b6000612c9082612d66565b9150612c9b83612d66565b925082612cab57612caa612ebe565b5b828204905092915050565b6000612cc182612d66565b9150612ccc83612d66565b925082821015612cdf57612cde612e8f565b5b828203905092915050565b6000612cf582612d46565b9050919050565b6000612d0782612d46565b9050919050565b60008115159050919050565b60007fffffffff0000000000000000000000000000000000000000000000000000000082169050919050565b600073ffffffffffffffffffffffffffffffffffffffff82169050919050565b6000819050919050565b82818337600083830152505050565b60005b83811015612d9d578082015181840152602081019050612d82565b83811115612dac576000848401525b50505050565b60006002820490506001821680612dca57607f821691505b60208210811415612dde57612ddd612eed565b5b50919050565b612ded82612f4b565b810181811067ffffffffffffffff82111715612e0c57612e0b612f1c565b5b80604052505050565b6000612e2082612d66565b91507fffffffffffffffffffffffffffffffffffffffffffffffffffffffffffffffff821415612e5357612e52612e8f565b5b600182019050919050565b6000612e6982612d66565b9150612e7483612d66565b925082612e8457612e83612ebe565b5b828206905092915050565b7f4e487b7100000000000000000000000000000000000000000000000000000000600052601160045260246000fd5b7f4e487b7100000000000000000000000000000000000000000000000000000000600052601260045260246000fd5b7f4e487b7100000000000000000000000000000000000000000000000000000000600052602260045260246000fd5b7f4e487b7100000000000000000000000000000000000000000000000000000000600052604160045260246000fd5b6000601f19601f8301169050919050565b7f4552433732313a207472616e7366657220746f206e6f6e20455243373231526560008201527f63656976657220696d706c656d656e7465720000000000000000000000000000602082015250565b7f4f776e61626c653a206e6577206f776e657220697320746865207a65726f206160008201527f6464726573730000000000000000000000000000000000000000000000000000602082015250565b7f4552433732313a207472616e736665722066726f6d20696e636f72726563742060008201527f6f776e6572000000000000000000000000000000000000000000000000000000602082015250565b7f4552433732313a20746f6b656e20616c7265616479206d696e74656400000000600082015250565b7f4552433732313a207472616e7366657220746f20746865207a65726f2061646460008201527f7265737300000000000000000000000000000000000000000000000000000000602082015250565b7f4552433732313a20617070726f766520746f2063616c6c657200000000000000600082015250565b7f5472616e73616374696f6e2076616c756520646964206e6f7420657175616c2060008201527f746865206d696e74207072696365000000000000000000000000000000000000602082015250565b7f4552433732313a206f70657261746f7220717565727920666f72206e6f6e657860008201527f697374656e7420746f6b656e0000000000000000000000000000000000000000602082015250565b7f4552433732313a20617070726f76652063616c6c6572206973206e6f74206f7760008201527f6e6572206e6f7220617070726f76656420666f7220616c6c0000000000000000602082015250565b7f4552433732313a2062616c616e636520717565727920666f7220746865207a6560008201527f726f206164647265737300000000000000000000000000000000000000000000602082015250565b7f4552433732313a206f776e657220717565727920666f72206e6f6e657869737460008201527f656e7420746f6b656e0000000000000000000000000000000000000000000000602082015250565b7f4552433732313a206d696e7420746f20746865207a65726f2061646472657373600082015250565b7f4552433732313a20617070726f76656420717565727920666f72206e6f6e657860008201527f697374656e7420746f6b656e0000000000000000000000000000000000000000602082015250565b7f4f776e61626c653a2063616c6c6572206973206e6f7420746865206f776e6572600082015250565b7f4552433732314d657461646174613a2055524920717565727920666f72206e6f60008201527f6e6578697374656e7420746f6b656e0000000000000000000000000000000000602082015250565b7f4552433732313a20617070726f76616c20746f2063757272656e74206f776e6560008201527f7200000000000000000000000000000000000000000000000000000000000000602082015250565b7f4552433732313a207472616e736665722063616c6c6572206973206e6f74206f60008201527f776e6572206e6f7220617070726f766564000000000000000000000000000000602082015250565b7f4d617820737570706c7920726561636865640000000000000000000000000000600082015250565b61343581612cea565b811461344057600080fd5b50565b61344c81612cfc565b811461345757600080fd5b50565b61346381612d0e565b811461346e57600080fd5b50565b61347a81612d1a565b811461348557600080fd5b50565b61349181612d66565b811461349c57600080fd5b5056fea26469706673582212201a46f14c3ccd63618dbde0af189f4cad3f5729961eb4e7fb6ec338027b133f1164736f6c63430008010033608060405234801561001057600080fd5b5061002d61002261003260201b60201c565b61003a60201b60201c565b6100fe565b600033905090565b60008060009054906101000a900473ffffffffffffffffffffffffffffffffffffffff169050816000806101000a81548173ffffffffffffffffffffffffffffffffffffffff021916908373ffffffffffffffffffffffffffffffffffffffff1602179055508173ffffffffffffffffffffffffffffffffffffffff168173ffffffffffffffffffffffffffffffffffffffff167f8be0079c531659141344cd1fd0a4f28419497f9722a3daafe3b4186f6b6457e060405160405180910390a35050565b610bfc8061010d6000396000f3fe6080604052600436106100555760003560e01c806351cff8d91461005a578063715018a6146100835780638da5cb5b1461009a578063e3a9db1a146100c5578063f2fde38b14610102578063f340fa011461012b575b600080fd5b34801561006657600080fd5b50610081600480360381019061007c91906107f5565b610147565b005b34801561008f57600080fd5b506100986102c7565b005b3480156100a657600080fd5b506100af61034f565b6040516100bc9190610900565b60405180910390f35b3480156100d157600080fd5b506100ec60048036038101906100e791906107cc565b610378565b6040516100f9919061099b565b60405180910390f35b34801561010e57600080fd5b50610129600480360381019061012491906107cc565b6103c1565b005b610145600480360381019061014091906107cc565b6104b9565b005b61014f6105e2565b73ffffffffffffffffffffffffffffffffffffffff1661016d61034f565b73ffffffffffffffffffffffffffffffffffffffff16146101c3576040517f08c379a00000000000000000000000000000000000000000000000000000000081526004016101ba9061097b565b60405180910390fd5b6000600160008373ffffffffffffffffffffffffffffffffffffffff1673ffffffffffffffffffffffffffffffffffffffff1681526020019081526020016000205490506000600160008473ffffffffffffffffffffffffffffffffffffffff1673ffffffffffffffffffffffffffffffffffffffff16815260200190815260200160002081905550610275818373ffffffffffffffffffffffffffffffffffffffff166105ea90919063ffffffff16565b8173ffffffffffffffffffffffffffffffffffffffff167f7084f5476618d8e60b11ef0d7d3f06914655adb8793e28ff7f018d4c76d505d5826040516102bb919061099b565b60405180910390a25050565b6102cf6105e2565b73ffffffffffffffffffffffffffffffffffffffff166102ed61034f565b73ffffffffffffffffffffffffffffffffffffffff1614610343576040517f08c379a000000000000000000000000000000000000000000000000000000000815260040161033a9061097b565b60405180910390fd5b61034d60006106de565b565b60008060009054906101000a900473ffffffffffffffffffffffffffffffffffffffff16905090565b6000600160008373ffffffffffffffffffffffffffffffffffffffff1673ffffffffffffffffffffffffffffffffffffffff168152602001908152602001600020549050919050565b6103c96105e2565b73ffffffffffffffffffffffffffffffffffffffff166103e761034f565b73ffffffffffffffffffffffffffffffffffffffff161461043d576040517f08c379a00000000000000000000000000000000000000000000000000000000081526004016104349061097b565b60405180910390fd5b600073ffffffffffffffffffffffffffffffffffffffff168173ffffffffffffffffffffffffffffffffffffffff1614156104ad576040517f08c379a00000000000000000000000000000000000000000000000000000000081526004016104a49061091b565b60405180910390fd5b6104b6816106de565b50565b6104c16105e2565b73ffffffffffffffffffffffffffffffffffffffff166104df61034f565b73ffffffffffffffffffffffffffffffffffffffff1614610535576040517f08c379a000000000000000000000000000000000000000000000000000000000815260040161052c9061097b565b60405180910390fd5b600034905080600160008473ffffffffffffffffffffffffffffffffffffffff1673ffffffffffffffffffffffffffffffffffffffff168152602001908152602001600020600082825461058991906109d2565b925050819055508173ffffffffffffffffffffffffffffffffffffffff167f2da466a7b24304f47e87fa2e1e5a81b9831ce54fec19055ce277ca2f39ba42c4826040516105d6919061099b565b60405180910390a25050565b600033905090565b8047101561062d576040517f08c379a00000000000000000000000000000000000000000000000000000000081526004016106249061095b565b60405180910390fd5b60008273ffffffffffffffffffffffffffffffffffffffff1682604051610653906108eb565b60006040518083038185875af1925050503d8060008114610690576040519150601f19603f3d011682016040523d82523d6000602084013e610695565b606091505b50509050806106d9576040517f08c379a00000000000000000000000000000000000000000000000000000000081526004016106d09061093b565b60405180910390fd5b505050565b60008060009054906101000a900473ffffffffffffffffffffffffffffffffffffffff169050816000806101000a81548173ffffffffffffffffffffffffffffffffffffffff021916908373ffffffffffffffffffffffffffffffffffffffff1602179055508173ffffffffffffffffffffffffffffffffffffffff168173ffffffffffffffffffffffffffffffffffffffff167f8be0079c531659141344cd1fd0a4f28419497f9722a3daafe3b4186f6b6457e060405160405180910390a35050565b6000813590506107b181610b98565b92915050565b6000813590506107c681610baf565b92915050565b6000602082840312156107de57600080fd5b60006107ec848285016107a2565b91505092915050565b60006020828403121561080757600080fd5b6000610815848285016107b7565b91505092915050565b61082781610a28565b82525050565b600061083a6026836109c1565b915061084582610aa5565b604082019050919050565b600061085d603a836109c1565b915061086882610af4565b604082019050919050565b6000610880601d836109c1565b915061088b82610b43565b602082019050919050565b60006108a36020836109c1565b91506108ae82610b6c565b602082019050919050565b60006108c66000836109b6565b91506108d182610b95565b600082019050919050565b6108e581610a6c565b82525050565b60006108f6826108b9565b9150819050919050565b6000602082019050610915600083018461081e565b92915050565b600060208201905081810360008301526109348161082d565b9050919050565b6000602082019050818103600083015261095481610850565b9050919050565b6000602082019050818103600083015261097481610873565b9050919050565b6000602082019050818103600083015261099481610896565b9050919050565b60006020820190506109b060008301846108dc565b92915050565b600081905092915050565b600082825260208201905092915050565b60006109dd82610a6c565b91506109e883610a6c565b9250827fffffffffffffffffffffffffffffffffffffffffffffffffffffffffffffffff03821115610a1d57610a1c610a76565b5b828201905092915050565b6000610a3382610a4c565b9050919050565b6000610a4582610a4c565b9050919050565b600073ffffffffffffffffffffffffffffffffffffffff82169050919050565b6000819050919050565b7f4e487b7100000000000000000000000000000000000000000000000000000000600052601160045260246000fd5b7f4f776e61626c653a206e6577206f776e657220697320746865207a65726f206160008201527f6464726573730000000000000000000000000000000000000000000000000000602082015250565b7f416464726573733a20756e61626c6520746f2073656e642076616c75652c207260008201527f6563697069656e74206d61792068617665207265766572746564000000000000602082015250565b7f416464726573733a20696e73756666696369656e742062616c616e6365000000600082015250565b7f4f776e61626c653a2063616c6c6572206973206e6f7420746865206f776e6572600082015250565b50565b610ba181610a28565b8114610bac57600080fd5b50565b610bb881610a3a565b8114610bc357600080fd5b5056fea264697066735822122073b307195fd92b28f2600edbbb914776573abe0392628b3f8a5ee2d6ab956cfa64736f6c63430008010033",
  "linkReferences": {},
  "deployedLinkReferences": {}
}